{
  "_format": "hh-sol-artifact-1",
  "contractName": "BEP20TokenFactory",
  "sourceName": "contracts/BEP20TokenFactory.sol",
  "abi": [
    {
      "inputs": [
        {
          "internalType": "address",
          "name": "_logicImplement",
          "type": "address"
        }
      ],
      "stateMutability": "nonpayable",
      "type": "constructor"
    },
    {
      "anonymous": false,
      "inputs": [
        {
          "indexed": true,
          "internalType": "address",
          "name": "previousOwner",
          "type": "address"
        },
        {
          "indexed": true,
          "internalType": "address",
          "name": "newOwner",
          "type": "address"
        }
      ],
      "name": "OwnershipTransferred",
      "type": "event"
    },
    {
      "anonymous": false,
      "inputs": [
        {
          "indexed": true,
          "internalType": "address",
          "name": "token",
          "type": "address"
        }
      ],
      "name": "TokenCreated",
      "type": "event"
    },
    {
      "inputs": [
        {
          "internalType": "string",
          "name": "name",
          "type": "string"
        },
        {
          "internalType": "string",
          "name": "symbol",
          "type": "string"
        },
        {
          "internalType": "uint8",
          "name": "decimals",
          "type": "uint8"
        },
        {
          "internalType": "uint256",
          "name": "amount",
          "type": "uint256"
        },
        {
          "internalType": "bool",
          "name": "mintable",
          "type": "bool"
        },
        {
          "internalType": "address",
          "name": "bep20Owner",
          "type": "address"
        },
        {
          "internalType": "address",
          "name": "proxyAdmin",
          "type": "address"
        }
      ],
      "name": "createBEP20Token",
      "outputs": [
        {
          "internalType": "address",
          "name": "",
          "type": "address"
        }
      ],
      "stateMutability": "nonpayable",
      "type": "function"
    },
    {
      "inputs": [],
      "name": "logicImplement",
      "outputs": [
        {
          "internalType": "address",
          "name": "",
          "type": "address"
        }
      ],
      "stateMutability": "view",
      "type": "function"
    },
    {
      "inputs": [],
      "name": "owner",
      "outputs": [
        {
          "internalType": "address",
          "name": "",
          "type": "address"
        }
      ],
      "stateMutability": "view",
      "type": "function"
    },
    {
      "inputs": [],
      "name": "renounceOwnership",
      "outputs": [],
      "stateMutability": "nonpayable",
      "type": "function"
    },
    {
      "inputs": [
        {
          "internalType": "address",
          "name": "newOwner",
          "type": "address"
        }
      ],
      "name": "transferOwnership",
      "outputs": [],
      "stateMutability": "nonpayable",
      "type": "function"
    }
  ],
  "bytecode": "0x608060405234801561001057600080fd5b506040516113843803806113848339818101604052602081101561003357600080fd5b505160006100486001600160e01b036100b716565b600080546001600160a01b0319166001600160a01b0383169081178255604051929350917f8be0079c531659141344cd1fd0a4f28419497f9722a3daafe3b4186f6b6457e0908290a350600180546001600160a01b0319166001600160a01b03929092169190911790556100bb565b3390565b6112ba806100ca6000396000f3fe608060405234801561001057600080fd5b50600436106100675760003560e01c80638da5cb5b116100505780638da5cb5b146100a7578063f2fde38b146100af578063f3b74ac5146100e257610067565b806357a2fe931461006c578063715018a61461009d575b600080fd5b6100746101d9565b6040805173ffffffffffffffffffffffffffffffffffffffff9092168252519081900360200190f35b6100a56101f5565b005b6100746102f5565b6100a5600480360360208110156100c557600080fd5b503573ffffffffffffffffffffffffffffffffffffffff16610311565b610074600480360360e08110156100f857600080fd5b81019060208101813564010000000081111561011357600080fd5b82018360208201111561012557600080fd5b8035906020019184600183028401116401000000008311171561014757600080fd5b91939092909160208101903564010000000081111561016557600080fd5b82018360208201111561017757600080fd5b8035906020019184600183028401116401000000008311171561019957600080fd5b919350915060ff81351690602081013590604081013515159073ffffffffffffffffffffffffffffffffffffffff6060820135811691608001351661049b565b60015473ffffffffffffffffffffffffffffffffffffffff1681565b6101fd610738565b60005473ffffffffffffffffffffffffffffffffffffffff90811691161461028657604080517f08c379a000000000000000000000000000000000000000000000000000000000815260206004820181905260248201527f4f776e61626c653a2063616c6c6572206973206e6f7420746865206f776e6572604482015290519081900360640190fd5b6000805460405173ffffffffffffffffffffffffffffffffffffffff909116907f8be0079c531659141344cd1fd0a4f28419497f9722a3daafe3b4186f6b6457e0908390a3600080547fffffffffffffffffffffffff0000000000000000000000000000000000000000169055565b60005473ffffffffffffffffffffffffffffffffffffffff1690565b610319610738565b60005473ffffffffffffffffffffffffffffffffffffffff9081169116146103a257604080517f08c379a000000000000000000000000000000000000000000000000000000000815260206004820181905260248201527f4f776e61626c653a2063616c6c6572206973206e6f7420746865206f776e6572604482015290519081900360640190fd5b73ffffffffffffffffffffffffffffffffffffffff811661040e576040517f08c379a000000000000000000000000000000000000000000000000000000000815260040180806020018281038252602681526020018061125f6026913960400191505060405180910390fd5b6000805460405173ffffffffffffffffffffffffffffffffffffffff808516939216917f8be0079c531659141344cd1fd0a4f28419497f9722a3daafe3b4186f6b6457e091a3600080547fffffffffffffffffffffffff00000000000000000000000000000000000000001673ffffffffffffffffffffffffffffffffffffffff92909216919091179055565b60006104a5610738565b60005473ffffffffffffffffffffffffffffffffffffffff90811691161461052e57604080517f08c379a000000000000000000000000000000000000000000000000000000000815260206004820181905260248201527f4f776e61626c653a2063616c6c6572206973206e6f7420746865206f776e6572604482015290519081900360640190fd5b60015460405160009173ffffffffffffffffffffffffffffffffffffffff169084906105599061073c565b73ffffffffffffffffffffffffffffffffffffffff928316815291166020820152606060408083018290526000918301829052519182900360a0019190f0801580156105a9573d6000803e3d6000fd5b50905060008190508073ffffffffffffffffffffffffffffffffffffffff1663ef3ebcb88d8d8d8d8d8d8d8d6040518963ffffffff1660e01b81526004018080602001806020018760ff1660ff168152602001868152602001851515151581526020018473ffffffffffffffffffffffffffffffffffffffff1673ffffffffffffffffffffffffffffffffffffffff16815260200183810383528b8b82818152602001925080828437600083820152601f017fffffffffffffffffffffffffffffffffffffffffffffffffffffffffffffffe01690910184810383528981526020019050898980828437600081840152601f19601f8201169050808301925050509a5050505050505050505050600060405180830381600087803b1580156106d057600080fd5b505af11580156106e4573d6000803e3d6000fd5b505060405173ffffffffffffffffffffffffffffffffffffffff841692507f2e2b3f61b70d2d131b2a807371103cc98d51adcaa5e9a8f9c32658ad8426e74e9150600090a29b9a5050505050505050505050565b3390565b610b158061074a8339019056fe608060405234801561001057600080fd5b50604051610b15380380610b158339818101604052606081101561003357600080fd5b8151602083015160408085018051915193959294830192918464010000000082111561005e57600080fd5b90830190602082018581111561007357600080fd5b825164010000000081118282018810171561008d57600080fd5b82525081516020918201929091019080838360005b838110156100ba5781810151838201526020016100a2565b50505050905090810190601f1680156100e75780820380516001836020036101000a031916815260200191505b5060408181527f656970313936372e70726f78792e696d706c656d656e746174696f6e0000000082525190819003601c01902086935085925084915083908290600080516020610abf8339815191526000199091011461014357fe5b610155826001600160e01b0361027a16565b80511561020d576000826001600160a01b0316826040518082805190602001908083835b602083106101985780518252601f199092019160209182019101610179565b6001836020036101000a038019825116818451168082178552505050505050905001915050600060405180830381855af49150503d80600081146101f8576040519150601f19603f3d011682016040523d82523d6000602084013e6101fd565b606091505b505090508061020b57600080fd5b505b5050604080517f656970313936372e70726f78792e61646d696e0000000000000000000000000081529051908190036013019020600080516020610a9f8339815191526000199091011461025d57fe5b61026f826001600160e01b036102da16565b5050505050506102f2565b61028d816102ec60201b6106b01760201c565b6102c85760405162461bcd60e51b8152600401808060200182810382526036815260200180610adf6036913960400191505060405180910390fd5b600080516020610abf83398151915255565b600080516020610a9f83398151915255565b3b151590565b61079e806103016000396000f3fe60806040526004361061005e5760003560e01c80635c60da1b116100435780635c60da1b146101425780638f28397014610180578063f851a440146101c05761006d565b80633659cfe6146100755780634f1ef286146100b55761006d565b3661006d5761006b6101d5565b005b61006b6101d5565b34801561008157600080fd5b5061006b6004803603602081101561009857600080fd5b503573ffffffffffffffffffffffffffffffffffffffff166101ef565b61006b600480360360408110156100cb57600080fd5b73ffffffffffffffffffffffffffffffffffffffff823516919081019060408101602082013564010000000081111561010357600080fd5b82018360208201111561011557600080fd5b8035906020019184600183028401116401000000008311171561013757600080fd5b509092509050610243565b34801561014e57600080fd5b50610157610317565b6040805173ffffffffffffffffffffffffffffffffffffffff9092168252519081900360200190f35b34801561018c57600080fd5b5061006b600480360360208110156101a357600080fd5b503573ffffffffffffffffffffffffffffffffffffffff1661036e565b3480156101cc57600080fd5b50610157610476565b6101dd6104bb565b6101ed6101e861054f565b610574565b565b6101f7610598565b73ffffffffffffffffffffffffffffffffffffffff163373ffffffffffffffffffffffffffffffffffffffff16141561023857610233816105bd565b610240565b6102406101d5565b50565b61024b610598565b73ffffffffffffffffffffffffffffffffffffffff163373ffffffffffffffffffffffffffffffffffffffff16141561030a57610287836105bd565b60008373ffffffffffffffffffffffffffffffffffffffff1683836040518083838082843760405192019450600093509091505080830381855af49150503d80600081146102f1576040519150601f19603f3d011682016040523d82523d6000602084013e6102f6565b606091505b505090508061030457600080fd5b50610312565b6103126101d5565b505050565b6000610321610598565b73ffffffffffffffffffffffffffffffffffffffff163373ffffffffffffffffffffffffffffffffffffffff1614156103635761035c61054f565b905061036b565b61036b6101d5565b90565b610376610598565b73ffffffffffffffffffffffffffffffffffffffff163373ffffffffffffffffffffffffffffffffffffffff1614156102385773ffffffffffffffffffffffffffffffffffffffff8116610415576040517f08c379a000000000000000000000000000000000000000000000000000000000815260040180806020018281038252603a8152602001806106b7603a913960400191505060405180910390fd5b7f7e644d79422f17c01e4894b5f4f588d331ebfa28653d42ae832dc59e38c9798f61043e610598565b6040805173ffffffffffffffffffffffffffffffffffffffff928316815291841660208301528051918290030190a16102338161060a565b6000610480610598565b73ffffffffffffffffffffffffffffffffffffffff163373ffffffffffffffffffffffffffffffffffffffff1614156103635761035c610598565b6104c3610598565b73ffffffffffffffffffffffffffffffffffffffff163373ffffffffffffffffffffffffffffffffffffffff161415610547576040517f08c379a00000000000000000000000000000000000000000000000000000000081526004018080602001828103825260428152602001806107276042913960600191505060405180910390fd5b6101ed6101ed565b7f360894a13ba1a3210667c828492db98dca3e2076cc3735a920a3ca505d382bbc5490565b3660008037600080366000845af43d6000803e808015610593573d6000f35b3d6000fd5b7fb53127684a568b3173ae13b9f8a6016e243e63b6e8ee1178d6a717850b5d61035490565b6105c68161062e565b60405173ffffffffffffffffffffffffffffffffffffffff8216907fbc7cd75a20ee27fd9adebab32041f755214dbc6bffa90cc0225b39da2e5c2d3b90600090a250565b7fb53127684a568b3173ae13b9f8a6016e243e63b6e8ee1178d6a717850b5d610355565b610637816106b0565b61068c576040517f08c379a00000000000000000000000000000000000000000000000000000000081526004018080602001828103825260368152602001806106f16036913960400191505060405180910390fd5b7f360894a13ba1a3210667c828492db98dca3e2076cc3735a920a3ca505d382bbc55565b3b15159056fe5472616e73706172656e745570677261646561626c6550726f78793a206e65772061646d696e20697320746865207a65726f20616464726573735570677261646561626c6550726f78793a206e657720696d706c656d656e746174696f6e206973206e6f74206120636f6e74726163745472616e73706172656e745570677261646561626c6550726f78793a2061646d696e2063616e6e6f742066616c6c6261636b20746f2070726f787920746172676574a264697066735822122056ce67b6264cc04ef3c67aa816a83b8826006766e66bc8f75f420493366160d964736f6c63430006040033b53127684a568b3173ae13b9f8a6016e243e63b6e8ee1178d6a717850b5d6103360894a13ba1a3210667c828492db98dca3e2076cc3735a920a3ca505d382bbc5570677261646561626c6550726f78793a206e657720696d706c656d656e746174696f6e206973206e6f74206120636f6e74726163744f776e61626c653a206e6577206f776e657220697320746865207a65726f2061646472657373a2646970667358221220129630743e99d8b631a09f2a1ed7995d8c94497c3fd12d019484381699de47d164736f6c63430006040033",
  "linkReferences": {},
  "deployedLinkReferences": {}
}